:100000000C94E4000C940C010C940C010C940C0165
:100010000C940C010C940C010C940C010C940C012C
:100020000C940C010C940C010C940C010C940C011C
:100030000C940C010C940C010C940C010C940C010C
:100040000C943A080C940C010C94FD0A0C942F0BA0
:100050000C940C010C940C010C940C010C940C01EC
:100060000C940C010C940C01005EBCE2613FDD833A
:10007000C29C7E20A3FD1F419DC3217FFCA2401E88
:100080005F01E3BD3E6082DC237D9FC1421CFEA078
:10009000E1BF5D0380DE3C62BEE0025CDF81633D68
:1000A0007C22C09E1D43A1FF4618FAA427799BC558
:1000B00084DA3866E5BB5907DB856739BAE4065848
:1000C0001947A5FB7826C49A653BD987045AB8E638
:1000D000A7F91B45C6987A24F8A6441A99C7257B28
:1000E0003A6486D85B05E7B98CD2306EEDB3510F18
:1000F0004E10F2AC2F7193CD114FADF3702ECC9208
:10010000D38D6F31B2EC0E50AFF1134DCE90722CF7
:100110006D33D18F0C52B0EE326C8ED0530DEFB1E7
:10012000F0AE4C1291CF2D73CA947628ABF51749D7
:100130000856B4EA6937D58B5709EBB536688AD4C7
:1001400095CB2977F4AA4816E9B7550B88D6346AB7
:100150002B7597C94A14F6A8742AC896154BA9F7A7
:10016000B6E80A54D7896B35000000080002010088
:100170000003040700000000000000000102040862
:100180001020408001020408102001020408102001
:10019000040404040404040402020202020203032D
:1001A00003030303000000002300260029000000D1
:1001B0000000250028002B0000000000240027007C
:1001C0002A00DB0219085F0B11241FBECFEFD8E015
:1001D000DEBFCDBF11E0A0E0B1E0EAE1F0E202C095
:1001E00005900D92A83BB107D9F722E0A8EBB1E04A
:1001F00001C01D92A53FB207E1F711E0C8ECD1E0C4
:1002000004C02297FE010E940710C23CD107C9F723
:100210000E94A30B0C940B100C940000CF92DF9261
:10022000EF92FF920F931F9340ED57E060E070E074
:1002300087E092E00E94670720E032EC41E050E066
:1002400068E572E087E092E00E947D0761E087E068
:1002500092E00E943D07882391F060E071E0809178
:10026000490290914A020E94F00B6AE070E080E03F
:1002700090E00E94B30887E092E00E94660741E0A8
:1002800060E087E092E00E94FB0720E042E060E14E
:1002900087EE91E00E94BC030E948408672B682BC4
:1002A000692B41F40E948408623071058105910533
:1002B00008F47FC087E092E00E94A4066093FF01EB
:1002C0007093000280930102909302020091030256
:1002D0001091040220910502309106026017710707
:1002E0008207930740F460930302709304028093A3
:1002F00005029093060200910302109104022091DE
:100300000502309106026B017C01C01AD10AE20A93
:10031000F30A970186010A3F11052105310508F40A
:1003200048C0609303027093040280930502909387
:10033000060244EF51E060E070E087E092E00E9446
:10034000A60661E087E092E00E943D07882309F15C
:1003500061E087E092E00E94C20662E171E0809174
:10036000490290914A020E94F00B0E948408AB015E
:10037000BC012AE030E08091490290914A020E943B
:10038000C20C87E092E00E94280787E092E00E947A
:10039000660762E070E080E090E00E94B30887E0CA
:1003A00092E01F910F91FF90EF90DF90CF900C940F
:1003B00031071F910F91FF90EF90DF90CF9008953C
:1003C000CF9341E062EC71E089ED91E00E94FB0582
:1003D000811109C089ED91E00E94C6056AEF70E0C5
:1003E00080E090E0E3C067E082EC91E00E94980634
:1003F0009091C9018913DDC08091C201823249F018
:10040000883239F0803109F0D4C081E08093D60180
:1004100002C01092D60189ED91E00E94A30462EC23
:1004200071E089ED91E00E949E0541E064E489ED70
:1004300091E00E94400568EE73E080E090E00E9449
:10044000B30889ED91E00E94A3048093D70162EC88
:1004500071E089ED91E00E949E0540E06EEB89ED30
:1004600091E00E9440051092D801C091D801C93096
:1004700078F489ED91E00E948205EC2FF0E0E653DC
:10048000FE4F80838091D8018F5F8093D801EDCF9C
:100490006091CB0170E0762F66278091CA01682BAE
:1004A0008091D601882399F083E0660F771F8A95A3
:1004B000E1F78091D1018031B9F42091D0018CE035
:1004C00090E0821B9109607F680F791F0DC08091B9
:1004D000CE01807611F4687F07C0803211F46C7F02
:1004E00003C0803409F46E7F882777FD8095982FAC
:1004F0000E94C80E20E030E040E85DE30E947C0FDF
:100500006093BE017093BF018093C0019093C101BD
:1005100026E636E646EE5FE30E947C0F20E030E000
:1005200040E052E40E94C50D6093BA017093BB0194
:100530008093BC019093BD0187EE91E00E949B03E4
:1005400040E060E087EE91E00E94A20364E171E088
:1005500087EE91E00E94F00B41E062E087EE91E0CF
:100560000E94A2038091B8019091B901892B31F0CA
:1005700062E271E087EE91E00E94F00B4091BE01D3
:100580005091BF016091C0017091C10122E030E043
:1005900087EE91E00E94C10D64E271E087EE91E088
:1005A0000E94F00B68E873E180E090E0CF910C943A
:1005B000B308CF910895CF92EF920F9327E0C22E08
:1005C00036E0E32E05E024E049E068E087EE91E0C4
:1005D0000E94770462E089ED91E00F91EF90CF9057
:1005E0000C94D805CF93DF93EC0160E08E810E94DC
:1005F000820981E090E00E94DB0861E08E810E9428
:10060000820981E090E00E94DB0860E08E810E9418
:10061000820984E690E0DF91CF910C94DB08CF92C1
:10062000DF92EF92FF920F931F93CF93DF937C01A2
:10063000C0E0D0E0C62ED12C87010C0F1D1F61E059
:10064000F80187810E944909B6010C2E02C07595F8
:1006500067950A94E2F76170F80187810E94820928
:100660002196C430D10541F7C701DF91CF911F9189
:100670000F91FF90EF90DF90CF900C94F202CF9209
:10068000DF92EF92FF920F931F93CF93DF937C0142
:10069000C0E0D0E0C62ED12C87010C0F1D1F61E0F9
:1006A000F80187810E944909B6010C2E02C0759598
:1006B00067950A94E2F76170F80187810E948209C8
:1006C0002196C830D10541F7C701DF91CF911F9125
:1006D0000F91FF90EF90DF90CF900C94F2021F9358
:1006E000CF93DF93EC01162F642F8C810E94820937
:1006F0008D818F3F19F060E00E9482098F85612F04
:1007000084FF06C0CE01DF91CF911F910C943F036F
:1007100070E084E0759567958A95E1F7CE010E94B7
:100720000F03612FCE01DF91CF911F910C940F0326
:1007300040E00C946F0361E00E94980380ED97E025
:100740000C94DB08443008F043E0FC012389421795
:1007500010F04FEF420FFC01E40FF11D2489260F2A
:100760002068622F0C949803FC016089262F246076
:10077000208B6C600C949803CF93DF93EC01423094
:1007800018F08F8588608F874B8B1C8A80E48D8B57
:100790006E8B70E0605C7F4F6F8B222329F04130BD
:1007A00019F48F8584608F8780E593EC0E94DB08C5
:1007B00060E08C810E94820960E08E810E94820943
:1007C0008D818F3F19F060E00E9482096F8564FD82
:1007D0001DC063E0CE010E940F0384E991E10E94F5
:1007E000DB0863E0CE010E940F0384E991E10E94DF
:1007F000DB0863E0CE010E940F0386E990E00E94CF
:10080000DB0862E0CE010E940F0316C06062CE01D9
:100810000E94980384E991E10E94DB086F85606281
:10082000CE010E94980386E990E00E94DB086F8564
:100830006062CE010E9498036F856062CE010E94C3
:10084000980384E0888BCE010E94B403CE010E94FD
:100850009B0382E0898B66E0CE01DF91CF910C94FF
:1008600098036F927F928F92AF92CF92EF920F93F5
:100870001F93CF93DF93CDB7DEB73C01162F842FA4
:100880005D854E853F859889F301848325830683A2
:10089000E782C086A18682865387448735879687FC
:1008A00061E00E944909F30185818F3F19F061E001
:1008B0000E94490961E0F30186810E9449091123E0
:1008C00019F0F301178603C080E1F301878720E068
:1008D00041E060E1C301DF91CF911F910F91EF9053
:1008E000CF90AF908F907F906F900C94BC038F92BD
:1008F000AF92CF92EF920F93DC0113961C921E924F
:100900001297ECE2F1E0ED93FC931F921F921F927D
:100910001F928C2CAE2CC02EE22E042F2FEF462FD0
:1009200061E00E9431040F900F900F900F900F9193
:10093000EF90CF90AF908F90089541E00E946F03A9
:1009400081E090E00895FF920F931F93CF93DF9380
:10095000FC010081C181D281F8948981F02EF0944C
:100960008F21898378941DE7115029F182E090E06E
:100970000E94DB0888818023B9F3F8948A818F2153
:100980008A838981802B8983789480EE91E00E940C
:10099000DB08F89489818F21898386E490E00E94A6
:1009A000DB088881802311E009F010E078948AE95F
:1009B00091E00E94DB08812FDF91CF911F910F9171
:1009C000FF9008951F93CF93DF93FC011081C181A5
:1009D000D281912F909560FF12C0F8948A8189236B
:1009E0008A838981812B89838AE090E00E94DB08D9
:1009F0008A81812B8A83789487E390E011C0F894F0
:100A00008A8189238A838981812B898381E490E08B
:100A10000E94DB088A81812B8A83789485E090E0AC
:100A2000DF91CF911F910C94DB080F931F93CF930D
:100A3000DF93FC011081C181D281F8948981812BDF
:100A400089838A81012F009580238A8383E090E047
:100A50000E94DB088981802389838AE090E00E94DC
:100A6000DB08C881789485E390E00E94DB081C23B2
:100A700081E009F480E0DF91CF911F910F910895FB
:100A8000CF92DF92EF92FF920F931F93CF93DF935A
:100A90001F92CDB7DEB76C01E62E08E010E0FF2410
:100AA000F39461E09F2D9E2109F460E0C601498323
:100AB0000E94E204FF0C0150110949810115110542
:100AC00081F7411115C0F894D6011196ED91FC9172
:100AD000129791818C918095892381831196ED9154
:100AE000FC91129792818C918095892382837894CE
:100AF0000F90DF91CF911F910F91FF90EF90DF90BA
:100B0000CF900895EF92FF920F931F93CF93DF93AF
:100B10008C01C8E0D0E0F12CEE24E394C8010E94DF
:100B200015058111FE28EE0C2197C1F78F2DDF915D
:100B3000CF911F910F91FF90EF900895CF92DF9288
:100B4000FF920F931F93CF93DF931F92CDB7DEB722
:100B50008C01F62E40E065E579830E944005CF2C9C
:100B60007981D72E88E0F82EF60161916F0140E07F
:100B7000C8010E944005FA94B9F70F90DF91CF9118
:100B80001F910F91FF90DF90CF900895FC01138685
:100B90001586148627E030E0DF01A20FB31F1396FD
:100BA0001C922115310519F021503109F5CF089516
:100BB0001F93CF93DF93EC01162F60E0812F0E94EB
:100BC0004909612F70E0FB01E458FE4FE491E8838E
:100BD000FB01E057FE4FE491F0E0EE0FFF1FEC55F4
:100BE000FE4F859194919A838983CE01DF91CF91B5
:100BF0001F910C94C605AF92BF92CF92DF92EF92F5
:100C0000FF920F931F93CF93DF931F92CDB7DEB761
:100C10005C01D62EE72EFC018585811164C0C501DB
:100C200049830E94A3044981811105C0F5011386FF
:100C30001586148671C0442319F040E060EF02C0AD
:100C400040E06CEEC5010E94400501E0F12CC12C92
:100C500011E0C5010E941505682FC50169830E9436
:100C600015056981613019F48130B9F433C02F2D35
:100C700030E068131BC0F5018385181730F4E20FCC
:100C8000F31F8381802349F402C0181731F060E01C
:100C9000193058F4F501148708C0F501EF0DF11D66
:100CA0008381802B838361E009C0C12EF501E20FAF
:100CB000F31F8381902F909589238383C5010E9420
:100CC000E2041F5F000F11F4F39401E0F7E0FF1559
:100CD00008F0BFCF113438F0F501C386C11009C048
:100CE00081E0858706C0F50113861586148680E0AD
:100CF00013C0F50183818823B1F3ED2DFE2D80E033
:100D000090E0D501A80FB91F13962C91219301965D
:100D100088309105B1F781E00F90DF91CF911F915D
:100D20000F91FF90EF90DF90CF90BF90AF9008951C
:100D3000DC0180E0615038F0ED91E827F0E0E859FF
:100D4000FF4F8491F7CF08950C948408CF93DF93DD
:100D5000EC014E875F87688B798B1A8A1B8A1C8A05
:100D60001D8A4E815F81688579854A875B876C879C
:100D70007D870E9484086E837F8388879987DF91AF
:100D8000CF910895BF92CF92DF92EF92FF920F938F
:100D90001F93CF93DF938C01B62E0E9484086B01C2
:100DA0007C01E801CE5BDF4F60E371E088819981CF
:100DB0000E94F00B4AE050E06B2D888199810E94DF
:100DC000CF0C67E371E0888199810E94F00B2AE0E3
:100DD00030E0B701A601888199810E94C20C69E3C5
:100DE00071E0888199810E94F00BF80186819781DA
:100DF000A085B185B701A601481B590B6A0B7B0B77
:100E00002AE030E0888199810E94C20C69E371E098
:100E1000888199810E94F00BF80146815781608595
:100E2000718582859385A485B585481B590B6A0B0E
:100E30007B0B2AE030E088819981DF91CF911F916F
:100E40000F91FF90EF90DF90CF90BF900C94C20C69
:100E50008E5B9F4F6BE371E0FC01808191810C946C
:100E60000D0CCF93DF93EC010E9484086E837F8387
:100E700088879987DF91CF9108950F931F93CF9320
:100E8000DF93EC01611116C00E9484080A811B8166
:100E90002C813D81601B710B820B930B61327105BC
:100EA0008105910538F463E070E080E090E00E94F5
:100EB000B308EACF0E9484086A837B838C839D8376
:100EC00081E0DF91CF911F910F9108950895FC016A
:100ED000EC5BFF4F1082118212821382FC0112829E
:100EE000138214821582411551056105710521F0A7
:100EF000CB01BA010C94B3080895FB01BA01A90112
:100F00008E5B9F4FDC01ED93FC9326E0CF010C94A8
:100F10009B0A8E5B9F4FDC018D919C91DC01ED91D2
:100F2000FC910680F781E02D099508958E5B9F4F17
:100F3000DC018D919C91DC01ED91FC910480F581A7
:100F4000E02D099508951F93CF93DF93EC01162FA1
:100F50000E9484086A837B838C839D83CE5BDF4FF2
:100F600062E471E0888199810E94F00B4AE050E0D0
:100F7000612F888199810E94CF0C69E471E088819A
:100F800099810E94F00B62E370E080E090E0DF91D5
:100F9000CF911F910C94B3081F93CF93DF93EC0173
:100FA000162F8E89882311F1CE010E949607811198
:100FB00002C085E61CC0CE010E9496078823C9F3B3
:100FC000CE010E948907883689F048F4883569F097
:100FD000833689F7612FCE010E94A30707C08137AE
:100FE00029F0863741F786E702C01E8A83E6DF9143
:100FF000CF911F9108950F931F93CF93DF931F926B
:10100000CDB7DEB78C01611108C0F801468B0F9097
:10101000DF91CF911F910F91089581E0F801868BA8
:1010200060E0C80149830E94CC0749818336C1F73B
:10103000ECCF10920D0210920E0210920F0210923D
:1010400010021092110210921202109213021092CA
:1010500014021092150210921602109217021092AA
:1010600018021092190210921A0210921B0210928A
:101070001C0208951F920F920FB60F9211242F9306
:101080003F938F939F93AF93BF9380915002909122
:101090005102A0915202B091530230914F0223E0CD
:1010A000230F2D3720F40196A11DB11D05C026E8A0
:1010B000230F0296A11DB11D20934F028093500271
:1010C00090935102A0935202B09353028091540224
:1010D00090915502A0915602B09157020196A11D20
:1010E000B11D8093540290935502A0935602B09381
:1010F0005702BF91AF919F918F913F912F910F9088
:101100000FBE0F901F9018952FB7F8946091500262
:101110007091510280915202909153022FBF089515
:101120003FB7F8948091540290915502A0915602D5
:10113000B091570226B5A89B05C02F3F19F0019624
:10114000A11DB11D3FBF6627782F892F9A2F620FEF
:10115000711D811D911D42E0660F771F881F991F29
:101160004A95D1F70895CF92DF92EF92FF92CF93F5
:10117000DF936B017C010E949008EB01C114D10444
:10118000E104F10489F00E94C30D0E9490086C1BD9
:101190007D0B683E734090F381E0C81AD108E108E6
:1011A000F108C851DC4FEACFDF91CF91FF90EF906B
:1011B000DF90CF900895019739F0880F991F880F1D
:1011C000991F02970197F1F70895789484B582608A
:1011D00084BD84B5816084BD85B5826085BD85B5DB
:1011E000816085BDEEE6F0E0808181608083E1E88A
:1011F000F0E01082808182608083808181608083C2
:10120000E0E8F0E0808181608083E1EBF0E08081C4
:1012100084608083E0EBF0E0808181608083EAE796
:10122000F0E080818460808380818260808380811F
:10123000816080838081806880831092C1000895DE
:10124000833081F028F4813099F08230A1F0089544
:101250008730A9F08830B9F08430D1F480918000D3
:101260008F7D03C0809180008F77809380000895E8
:1012700084B58F7702C084B58F7D84BD0895809139
:10128000B0008F7703C08091B0008F7D8093B00055
:101290000895CF93DF9390E0FC01E458FE4F249132
:1012A000FC01E057FE4F8491882349F190E0880FBC
:1012B000991FFC01E854FE4FA591B49182559E4FB1
:1012C000FC01C591D4919FB7611108C0F8948C912D
:1012D000209582238C93888182230AC0623051F446
:1012E000F8948C91322F309583238C938881822BB4
:1012F000888304C0F8948C91822B8C939FBFDF91DC
:10130000CF9108950F931F93CF93DF931F92CDB783
:10131000DEB7282F30E0F901E859FE4F8491F9013A
:10132000E458FE4F1491F901E057FE4F0491002359
:10133000C9F0882321F069830E9420096981E02F88
:10134000F0E0EE0FFF1FE255FE4FA591B4919FB75D
:10135000F8948C91611103C01095812301C0812BF9
:101360008C939FBF0F90DF91CF911F910F910895A4
:10137000FC01818D228D90E0805C9F4F821B910942
:101380008F7399270895FC01918D828D981731F004
:10139000828DE80FF11D858D90E008958FEF9FEF0E
:1013A0000895FC01918D828D981761F0828DDF0187
:1013B000A80FB11D5D968C91928D9F5F9F73928F48
:1013C00090E008958FEF9FEF089585E59BE0892BCE
:1013D00049F080E090E0892B29F00E94550B8111A3
:1013E0000C9400000895FC01848DDF01A80FB11D4D
:1013F000A35ABF4F2C91848D90E001968F7399274B
:10140000848FA689B7892C93A089B1898C91806437
:101410008C93938D848D981306C00288F389E02DF8
:1014200080818F7D80830895CF93DF93EC01888D39
:101430008823C9F0EA89FB89808185FD05C0A889D8
:10144000B9898C9186FD0FC00FB607FCF5CF80815E
:1014500085FFF2CFA889B9898C9185FFEDCFCE01A8
:101460000E94F309E7CFDF91CF910895CF92DF92E9
:10147000FF920F931F93CF93DF931F92CDB7DEB7E9
:101480006C01DC015B969C915B975C968C915C9700
:10149000981307C05096ED91FC915197808185FD7E
:1014A00032C0F601038D10E00F5F1F4F0F7311273D
:1014B000F02EF601848DF81211C00FB607FCF9CF9B
:1014C000D6015096ED91FC915197808185FFF1CF27
:1014D000C60169830E94F3096981EBCF838DE80F10
:1014E000F11DE35AFF4F6083D6015B960C935B9727
:1014F0005296ED91FC91539780818062808381E0C8
:1015000058968C930DC0D6015696ED91FC91579745
:1015100060835096ED91FC91519780818064808327
:1015200081E090E00F90DF91CF911F910F91FF909C
:10153000DF90CF900895BF92CF92DF92EF92FF920B
:10154000CF93DF93EC016A017B01B22EE889F98920
:1015500082E08083411581EE580761057105A1F095
:1015600060E079E08DE390E0A70196010E94E30F2F
:1015700021503109410951095695479537952795CD
:10158000211580E1380798F0E889F989108260E830
:1015900074E88EE190E0A70196010E94E30F2150CC
:1015A0003109410951095695479537952795EC859D
:1015B000FD853083EE85FF852083188EEC89FD89BB
:1015C000B082EA89FB89808180618083EA89FB8916
:1015D000808188608083EA89FB898081806880833C
:1015E000EA89FB8980818F7D8083DF91CF91FF9095
:1015F000EF90DF90CF90BF9008951F920F920FB69B
:101600000F9211242F938F939F93EF93FF93E09169
:101610006802F09169028081E0916E02F0916F02A0
:1016200082FD12C09081809171028F5F8F73209133
:101630007202821751F0E0917102F0E0E85AFD4F1A
:10164000958F8093710201C08081FF91EF919F91EE
:101650008F912F910F900FBE0F901F9018951F9292
:101660000F920FB60F9211242F933F934F935F93D6
:101670006F937F938F939F93AF93BF93EF93FF935A
:1016800088E592E00E94F309FF91EF91BF91AF913D
:101690009F918F917F916F915F914F913F912F918A
:1016A0000F900FBE0F901F90189588E592E00E9452
:1016B000B80921E0892B09F420E0822F08951092C7
:1016C0005B0210925A0288EE93E0A0E0B0E08093B3
:1016D0005C0290935D02A0935E02B0935F028EE97C
:1016E00091E0909359028093580285EC90E090939A
:1016F00065028093640284EC90E09093670280938B
:10170000660280EC90E0909369028093680281EC1D
:1017100090E090936B0280936A0282EC90E0909349
:101720006D0280936C0286EC90E090936F02809340
:101730006E02109271021092720210927302109255
:101740007402089508950E94E5080E94A20B0E9469
:101750000E01C5EED9E00E94E0012097E1F30E945E
:10176000E509F9CFCF92DF92EF92FF920F931F938B
:10177000CF93DF936C017A01EB01E60EF71E00E0D8
:1017800010E0CE15DF0561F06991D601ED91FC9175
:101790000190F081E02DC6010995080F191FF1CFC6
:1017A000C801DF91CF911F910F91FF90EF90DF90D3
:1017B000CF9008956115710581F0DB010D90002037
:1017C000E9F7AD0141505109461B570BDC01ED9182
:1017D000FC910280F381E02D099480E090E008956F
:1017E0000C94DA0BDC01ED91FC910190F081E02D7D
:1017F00009940F931F93CF93DF93EC016DE00E9448
:10180000F20B8C016AE0CE010E94F20B800F911F57
:10181000DF91CF911F910F9108950F931F93CF9355
:10182000DF93EC010E94DA0B8C01CE010E94F90BD0
:10183000800F911FDF91CF911F910F9108958F928B
:101840009F92AF92BF92CF92DF92EF92FF920F934F
:101850001F93CF93DF93CDB7DEB7A1970FB6F89460
:10186000DEBF0FBECDBF7C01C42EE52FCB01D22E33
:1018700019A221E02D1510F02AE0D22E8E010F5D65
:101880001F4F8D2C912CA12CB12C6C2D7E2FA501DE
:1018900094010E94E30F8C2DD29E801911240150D7
:1018A00011098A3014F4805D01C0895CF8018083DD
:1018B000211531054105510521F0C22EE32FCA0142
:1018C000E4CFB801C7010E94DA0BA1960FB6F894D5
:1018D000DEBF0FBECDBFDF91CF911F910F91FF9063
:1018E000EF90DF90CF90BF90AF909F908F90089532
:1018F000CF92DF92EF92FF920F931F93CF93DF93DC
:10190000EC016A017B012115310579F4E881F98147
:101910000190F081E02D642FDF91CF911F910F9105
:10192000FF90EF90DF90CF9009942A303105E9F4D1
:1019300077FF1AC06DE20E94F20B8C0144275527F5
:10194000BA014C195D096E097F092AE0CE010E9497
:101950001F0C800F911FDF91CF911F910F91FF906E
:10196000EF90DF90CF9008952AE0B701A601CE0155
:10197000DF91CF911F910F91FF90EF90DF90CF906B
:101980000C941F0C2115310541F4DC01ED91FC9103
:101990000190F081E02D642F09940C941F0C9A01A2
:1019A000462F50E060E070E00C94C20C4F925F92C2
:1019B0006F927F928F929F92AF92BF92CF92DF925F
:1019C000EF92FF920F931F93CF93DF93EC016A0185
:1019D0007B01B22E9A01AB01C701B6010E94DF0F55
:1019E000882319F06AEA71E027C026013701E894DC
:1019F00077F82FEF3FEF4FE75FE7C301B2010E9497
:101A0000DF0F81110DC02FEF3FEF4FE75FE7C301FD
:101A1000B2010E94290E18161CF46EEA71E00CC087
:101A20002FEF3FEF4FE75FE4C701B6010E94780F49
:101A30001816ACF462EB71E0CE01DF91CF911F91EB
:101A40000F91FF90EF90DF90CF90BF90AF909F905D
:101A50008F907F906F905F904F900C94DA0B2FEFE8
:101A60003FEF4FE75FECC701B6010E94290E87FDEB
:101A7000E1CF20E030E0A901C701B6010E94290EA4
:101A800087FF0AC06DE2CE010E94F20B8C01F7FACB
:101A9000F094F7F8F09402C000E010E0A12C60E0B0
:101AA00070E080E09FE3AB1441F020E030E040E2E2
:101AB00051E40E942D0EA394F6CF9B01AC01C70107
:101AC000B6010E94C50D6B017C010E949A0E2B018C
:101AD0003C010E94C60E9B01AC01C701B6010E94E9
:101AE000C40D6B017C012AE0B301A201CE010E946A
:101AF0001F0C080F191FBB2039F066EB71E0CE01F7
:101B00000E94DA0B080F191F7B2C772041F120E08F
:101B100030E040E251E4C701B6010E947C0F6B0146
:101B20007C010E94950E4B01AA2497FCA094BA2C2C
:101B30002AE030E0B501A401CE010E94780C080F24
:101B4000191FC501B4010E94C80E9B01AC01C70159
:101B5000B6010E94C40D6B017C017A94D6CFC801F6
:101B6000DF91CF911F910F91FF90EF90DF90CF9079
:101B7000BF90AF909F908F907F906F905F904F90AD
:101B800008950C94D60C08955058BB27AA270ED060
:101B900075C166D130F06BD120F031F49F3F11F464
:101BA0001EF45BC10EF4E095E7FB51C1E92F77D13C
:101BB00080F3BA17620773078407950718F071F46A
:101BC0009EF58FC10EF4E0950B2EBA2FA02D0B01C0
:101BD000B90190010C01CA01A0011124FF27591B72
:101BE00099F0593F50F4503E68F11A16F040A22F78
:101BF000232F342F4427585FF3CF469537952795E9
:101C0000A795F0405395C9F77EF41F16BA0B620BE7
:101C1000730B840BBAF09150A1F0FF0FBB1F661F2E
:101C2000771F881FC2F70EC0BA0F621F731F841F71
:101C300048F4879577956795B795F7959E3F08F097
:101C4000B3CF9395880F08F09927EE0F9795879556
:101C50000895D9D008F481E008950CD00FC107D1C0
:101C600040F0FED030F021F45F3F19F0F0C0511188
:101C700039C1F3C014D198F39923C9F35523B1F3B3
:101C8000951B550BBB27AA2762177307840738F0EB
:101C90009F5F5F4F220F331F441FAA1FA9F333D04A
:101CA0000E2E3AF0E0E830D091505040E695001CFE
:101CB000CAF729D0FE2F27D0660F771F881FBB1FBA
:101CC000261737074807AB07B0E809F0BB0B802D94
:101CD000BF01FF2793585F4F2AF09E3F510568F0E0
:101CE000B6C000C15F3FECF3983EDCF38695779574
:101CF0006795B795F7959F5FC9F7880F911D9695E2
:101D0000879597F90895E1E0660F771F881FBB1F3D
:101D1000621773078407BA0720F0621B730B840BEA
:101D2000BA0BEE1F88F7E095089504D06894B111BE
:101D3000D9C00895BCD088F09F5790F0B92F99274B
:101D4000B751A0F0D1F0660F771F881F991F1AF0C6
:101D5000BA95C9F712C0B13081F0C3D0B1E008958F
:101D6000C0C0672F782F8827B85F39F0B93FCCF310
:101D7000869577956795B395D9F73EF490958095BC
:101D8000709561957F4F8F4F9F4F0895E89409C0DC
:101D900097FB3EF490958095709561957F4F8F4F9E
:101DA0009F4F9923A9F0F92F96E9BB279395F695B4
:101DB000879577956795B795F111F8CFFAF4BB0F32
:101DC00011F460FF1BC06F5F7F4F8F4F9F4F16C096
:101DD000882311F096E911C0772321F09EE8872F20
:101DE000762F05C0662371F096E8862F70E060E0DC
:101DF0002AF09A95660F771F881FDAF7880F969555
:101E0000879597F90895990F0008550FAA0BE0E8F8
:101E1000FEEF16161706E807F907C0F012161306AC
:101E2000E407F50798F0621B730B840B950B39F4EC
:101E30000A2661F0232B242B252B21F408950A2652
:101E400009F4A140A6958FEF811D811D089597F992
:101E50009F6780E870E060E008959FEF80EC089550
:101E600000240A9416161706180609060895002479
:101E70000A9412161306140605060895092E0394F3
:101E8000000C11F4882352F0BB0F40F4BF2B11F467
:101E900060FF04C06F5F7F4F8F4F9F4F089557FDC6
:101EA0009058440F551F59F05F3F71F04795880FC8
:101EB00097FB991F61F09F3F79F08795089512165F
:101EC00013061406551FF2CF4695F1DF08C016160B
:101ED00017061806991FF1CF8695710561050894BC
:101EE0000895E894BB2766277727CB0197F90895D3
:101EF0008ADF08F48FEF08950BD0C0CFB1DF28F050
:101F0000B6DF18F0952309F0A2CFA7CF1124EACFAE
:101F1000C6DFA0F3959FD1F3950F50E0551F629F48
:101F2000F001729FBB27F00DB11D639FAA27F00D32
:101F3000B11DAA1F649F6627B00DA11D661F829F59
:101F40002227B00DA11D621F739FB00DA11D621F3E
:101F5000839FA00D611D221F749F3327A00D611D5B
:101F6000231F849F600D211D822F762F6A2F11243D
:101F70009F5750408AF0E1F088234AF0EE0FFF1F90
:101F8000BB1F661F771F881F91505040A9F79E3FC7
:101F9000510570F05CCFA6CF5F3FECF3983EDCF3C9
:101FA000869577956795B795F795E7959F5FC1F704
:101FB000FE2B880F911D9695879597F9089523DF3D
:101FC000880B990B0895A1E21A2EAA1BBB1BFD01D9
:101FD0000DC0AA1FBB1FEE1FFF1FA217B307E40708
:101FE000F50720F0A21BB30BE40BF50B661F771F60
:101FF000881F991F1A9469F7609570958095909540
:102000009B01AC01BD01CF010895EE0FFF1F0590AC
:0A201000F491E02D0994F894FFCF3D
:10201A00564D4450565F317C315F564D4450560DF3
:10202A000A007C0054656D70657261747572613A5C
:10203A0020002D0020432000000000009D04B20B68
:10204A00564D4450455F003A323A005F564D44506F
:10205A004500564D4450435F005F564D4450430D72
:10206A000A004572726F723A20417474656D707419
:10207A0020746F20736574206120726561642D6F0E
:10208A006E6C79207661726961626C65206F72206C
:10209A00646174612074797065206E6F7420737541
:1020AA0070706F727465640D0A0000000000360AD1
:1020BA00B20BB809D109C309140A6E616E00696EC0
:0820CA0066006F7666002E002F
:107E0000112484B714BE81FFF0D085E080938100F7
:107E100082E08093C00088E18093C10086E0809377
:107E2000C20080E18093C4008EE0C9D0259A86E02C
:107E300020E33CEF91E0309385002093840096BBD3
:107E4000B09BFECF1D9AA8958150A9F7CC24DD24C4
:107E500088248394B5E0AB2EA1E19A2EF3E0BF2EE7
:107E6000A2D0813461F49FD0082FAFD0023811F036
:107E7000013811F484E001C083E08DD089C08234E0
:107E800011F484E103C0853419F485E0A6D080C0E4
:107E9000853579F488D0E82EFF2485D0082F10E0AE
:107EA000102F00270E291F29000F111F8ED06801E7
:107EB0006FC0863521F484E090D080E0DECF843638
:107EC00009F040C070D06FD0082F6DD080E0C81688
:107ED00080E7D80618F4F601B7BEE895C0E0D1E017
:107EE00062D089930C17E1F7F0E0CF16F0E7DF06D8
:107EF00018F0F601B7BEE89568D007B600FCFDCFD4
:107F0000A601A0E0B1E02C9130E011968C91119780
:107F100090E0982F8827822B932B1296FA010C0160
:107F200087BEE89511244E5F5F4FF1E0A038BF0790
:107F300051F7F601A7BEE89507B600FCFDCF97BE46
:107F4000E89526C08437B1F42ED02DD0F82E2BD052
:107F50003CD0F601EF2C8F010F5F1F4F84911BD097
:107F6000EA94F801C1F70894C11CD11CFA94CF0C13
:107F7000D11C0EC0853739F428D08EE10CD085E9AC
:107F80000AD08FE07ACF813511F488E018D01DD067
:107F900080E101D065CF982F8091C00085FFFCCF94
:107FA0009093C60008958091C00087FFFCCF809118
:107FB000C00084FD01C0A8958091C6000895E0E648
:107FC000F0E098E1908380830895EDDF803219F02E
:107FD00088E0F5DFFFCF84E1DECF1F93182FE3DFCA
:107FE0001150E9F7F2DF1F91089580E0E8DFEE27F6
:047FF000FF270994CA
:027FFE00040479
:0400000300007E007B
:00000001FF