:100000000C941C010C9444010C9444010C94440184
:100010000C9444010C9444010C9444010C9444014C
:100020000C9444010C9444010C94D4090C94A2083F
:100030000C9444010C9444010C9444010C9444012C
:100040000C9444010C9444010C9444010C9444011C
:100050000C9444010C9444010C9444010C94E4036A
:100060000C9444010C9444010C9444010C944401FC
:100070000C9444010C9444010C9444010C944401EC
:100080000C9444010C9444010C9444010C944401DC
:100090000C9444010C9444010C9444010C944401CC
:1000A0000C9444010C9444010C944401080B00028C
:1000B0000202010009040000010202000005240000
:1000C0001001052401010104240206052406000193
:1000D0000705810310004009040100020A00000026
:1000E000070502024000000705830240000000C12E
:1000F0008081C11201000202000040032A418000F9
:1001000001010200011201000200000040032A4127
:100110008000010102000141726475696E6F205315
:10012000726C0041726475696E6F2059756E0004BF
:1001300003090400000000000000002A2B28000032
:1001400000000000000000000000000000000000AF
:100150000000002C9EB4A0A1A2A434A6A7A5AE3690
:100160002D3738271E1F20212223242526B333B6FE
:100170002EB7B89F8485868788898A8B8C8D8E8FD1
:10018000909192939495969798999A9B9C9D2F31D4
:1001900030A3AD350405060708090A0B0C0D0E0F38
:1001A000101112131415161718191A1B1C1DAFB1B4
:1001B000B0B500090402000103000000092101019B
:1001C00000012265000705840340000105010902C2
:1001D000A1010901A10085010509190129031500E3
:1001E00025019503750181029501750581030501BE
:1001F0000930093109381581257F75089503810675
:10020000C0C005010906A1018502050719E029E71B
:100210001500250175019508810295017508810376
:1002200095067508150025650507190029658100E3
:10023000C000C303AD057F0B11241FBECFEFDAE072
:10024000DEBFCDBF11E0A0E0B1E0ECE6F7E102C017
:1002500005900D92A63AB107D9F722E0A6EAB1E0DF
:1002600001C01D92A536B207E1F712E0C8E3D2E063
:1002700004C02297FE010E94B00BC233D107C9F718
:100280000E94CB050C94B40B0C94000040ED57E099
:1002900060E070E08EEA91E00E941D0320E032EC05
:1002A00041E050E06FEF71E08EEA91E00E94D402ED
:1002B00061E08EEA91E00E94AA02882391F06AE050
:1002C00071E08091F0019091F1010E941C066AE0BA
:1002D00070E080E090E00E945D048EEA91E00E9470
:1002E000D30241E060E08EEA91E00C94A503CF9246
:1002F000DF92EF92FF920F931F930E942E04672BC1
:10030000682B692B41F40E942E046230710581052F
:10031000910508F47FC08EEA91E00E94110260937B
:10032000A6017093A7018093A8019093A901009161
:10033000AA011091AB012091AC013091AD01601781
:1003400071078207930740F46093AA017093AB0191
:100350008093AC019093AD010091AA011091AB0183
:100360002091AC013091AD016B017C01C01AD10A22
:10037000E20AF30A970186010A3F110521053105BA
:1003800008F448C06093AA017093AB018093AC015C
:100390009093AD0144EF51E060E070E08EEA91E0AF
:1003A0000E94130261E08EEA91E00E94AA02882373
:1003B00009F161E08EEA91E00E942F026CE171E0A8
:1003C0008091F0019091F1010E941C060E942E0480
:1003D000AB01BC012AE030E08091F0019091F10185
:1003E0000E94A4068EEA91E00E9495028EEA91E0B6
:1003F0000E94D30262E070E080E090E00E945D0421
:100400008EEA91E01F910F91FF90EF90DF90CF90D7
:100410000C949E021F910F91FF90EF90DF90CF9070
:1004200008950C942E04CF93DF93EC014E875F87E1
:10043000688B798B1A8A1B8A1C8A1D8A4E815F8180
:10044000688579854A875B876C877D870E942E0443
:100450006E837F8388879987DF91CF910895BF92BC
:10046000CF92DF92EF92FF920F931F93CF93DF9380
:100470008C01B62E0E942E046B017C01E801CE5B3C
:10048000DF4F6EE171E0888199810E941C064AE08D
:1004900050E06B2D888199810E94B10665E271E080
:1004A000888199810E941C062AE030E0B701A601EC
:1004B000888199810E94A40667E271E08881998110
:1004C0000E941C06F80186819781A085B185B7013D
:1004D000A601481B590B6A0B7B0B2AE030E0888190
:1004E00099810E94A40667E271E0888199810E9447
:1004F0001C06F80146815781608571858285938548
:10050000A485B585481B590B6A0B7B0B2AE030E0AC
:1005100088819981DF91CF911F910F91FF90EF908A
:10052000DF90CF90BF900C94A4068E5B9F4F69E242
:1005300071E0FC01808191810C943906CF93DF93A7
:10054000EC010E942E046E837F8388879987DF9158
:10055000CF9108950F931F93CF93DF93EC01611117
:1005600016C00E942E040A811B812C813D81601BD4
:10057000710B820B930B613271058105910538F483
:1005800063E070E080E090E00E945D04EACF0E94AA
:100590002E046A837B838C839D8381E0DF91CF91DE
:1005A0001F910F9108950895CF92DF92EF92FF92DD
:1005B0000F931F93CF93DF9300D000D0CDB7DEB75A
:1005C0007B018C010E5B1F4FF801718360838BE10F
:1005D000C82ED12CC70129833A834B835C830E94A8
:1005E0009E0529813A814B815C81811113C0F1E024
:1005F000CF1AD10879F064E670E080E090E02983BA
:100600003A834B835C830E945D045C814B813A8119
:100610002981E0CFBA01A901F801808191810F9071
:100620000F900F900F90DF91CF911F910F91FF903E
:10063000EF90DF90CF900C949805FC01EC5BFF4F9E
:100640001082118212821382FC01128213821482A0
:100650001582411551056105710521F0CB01BA01E3
:100660000C945D0408958E5B9F4FDC018D919C91ED
:10067000DC01ED91FC910680F781E02D099508954C
:100680008E5B9F4FDC018D919C91DC01ED91FC9183
:100690000480F581E02D099508951F93CF93DF9392
:1006A000EC01162F0E942E046A837B838C839D832A
:1006B000CE5BDF4F60E371E0888199810E941C0668
:1006C0004AE050E0612F888199810E94B10667E37A
:1006D00071E0888199810E941C0662E370E080E0ED
:1006E00090E0DF91CF911F910C945D041F93CF9305
:1006F000DF93EC01162F8E89882311F1CE010E9421
:100700004003811102C085E61CC0CE010E94400357
:100710008823C9F3CE010E943303883689F048F458
:10072000883569F0833689F7612FCE010E944D0329
:1007300007C0813729F0863741F786E702C01E8A55
:1007400083E6DF91CF911F9108950F931F93CF936D
:10075000DF931F92CDB7DEB78C01611108C0F8019D
:10076000468B0F90DF91CF911F910F91089581E0FB
:10077000F801868B60E0C80149830E9476034981B5
:100780008336C1F7ECCF1092B4011092B5011092EC
:10079000B6011092B7011092B8011092B9011092EF
:1007A000BA011092BB011092BC011092BD011092CF
:1007B000BE011092BF011092C0011092C1011092AF
:1007C000C2011092C30108951F920F920FB60F92AB
:1007D00011242F933F938F939F93AF93BF93809157
:1007E000F7019091F801A091F901B091FA013091CF
:1007F000F60123E0230F2D3720F40196A11DB11D32
:1008000005C026E8230F0296A11DB11D2093F60115
:100810008093F7019093F801A093F901B093FA0146
:100820008091FB019091FC01A091FD01B091FE012E
:100830000196A11DB11D8093FB019093FC01A09333
:10084000FD01B093FE01BF91AF919F918F913F91B8
:100850002F910F900FBE0F901F9018952FB7F894FF
:100860006091F7017091F8018091F9019091FA017E
:100870002FBF08953FB7F8948091FB019091FC0140
:10088000A091FD01B091FE0126B5A89B05C02F3FA8
:1008900019F00196A11DB11D3FBF6627782F892F42
:1008A0009A2F620F711D811D911D42E0660F771F07
:1008B000881F991F4A95D1F70895CF92DF92EF9242
:1008C000FF92CF93DF936B017C010E943A04EB010E
:1008D000C114D104E104F10489F00E94480A0E9485
:1008E0003A046C1B7D0B683E734090F381E0C81A9C
:1008F000D108E108F108C851DC4FEACFDF91CF9170
:10090000FF90EF90DF90CF900895789484B5826047
:1009100084BD84B5816084BD85B5826085BD85B5A3
:10092000816085BDEEE6F0E0808181608083E1E852
:10093000F0E010828081826080838081816080838A
:10094000E0E8F0E0808181608083E1E9F0E080818F
:1009500082608083808181608083E0E9F0E0808133
:1009600081608083E1ECF0E080818460808380811D
:1009700082608083808181608083E3ECF0E080810D
:1009800081608083E0ECF0E0808182608083E2EC33
:10099000F0E0808181608083EAE7F0E0808184601C
:1009A0008083808182608083808181608083808178
:1009B000806880830895CF93DF931F92CDB7DEB711
:1009C0006983DC01ED91FC910280F381E02D41E02F
:1009D00050E0BE016F5F7F4F09950F90DF91CF917F
:1009E0000895CF93DF93EC018C859D8597FF05C01B
:1009F00082E00E9477079D878C878C859D85DF919B
:100A0000CF91089583E00C94CA09FC0184859585F3
:100A100097FD06C082E00E941F0790E001960895AE
:100A200082E00E941F0790E00895FC01848595856F
:100A300097FD05C02FEF3FEF35872487089582E0AB
:100A40000C947707CF93DF93EC0180910701882303
:100A500031F083E00E94A8071816190634F081E0EF
:100A600090E09B838A8380E090E0DF91CF910895AE
:100A7000FC0120812E5F208342E450E06CEA70E0AC
:100A800080E80C944308FC0181819081913A59F4EB
:100A9000813209F03CC047E050E060E071E080E066
:100AA0000E94430843C0913291F5803239F467E0E7
:100AB00070E080E091E00E94740806C0823209F084
:100AC00035C08281809307018091000190910101DE
:100AD000A0910201B0910301803B9440A105B105B2
:100AE000C1F48091070180FD14C087E797E79093D8
:100AF0000108809300082BE088E190E00FB6F8949D
:100B0000A895809360000FBE209360000FC080E026
:100B1000089588E10FB6F894809360001092600009
:100B20000FBEA895109201081092000881E0089568
:100B30002FEF3FEFFC01358724870895CF93C091B5
:100B400007016AE070E080E090E00E945D0481E0CF
:100B5000C11101C080E0CF9108951092020210925D
:100B6000010288EE93E0A0E0B0E08093030290934E
:100B70000402A0930502B09306028CE891E09093E2
:100B800000028093FF018FEF9FEF90930C02809300
:100B90000B02089508950E9485040E94CA058FE4FF
:100BA00092E00E942A0A0E944601C0E0D0E00E9422
:100BB00077012097E1F30E940000F9CFCF92DF92F6
:100BC000EF92FF920F931F93CF93DF936C017A0103
:100BD000EB01E60EF71E00E010E0CE15DF0561F038
:100BE0006991D601ED91FC910190F081E02DC60153
:100BF0000995080F191FF1CFC801DF91CF911F91FF
:100C00000F91FF90EF90DF90CF90089561157105DF
:100C100081F0DB010D900020E9F7AD014150510951
:100C2000461B570BDC01ED91FC910280F381E02D16
:100C3000099480E090E008950C940606DC01ED91A3
:100C4000FC910190F081E02D09940F931F93CF93B5
:100C5000DF93EC016DE00E941E068C016AE0CE017C
:100C60000E941E06800F911FDF91CF911F910F915F
:100C700008950F931F93CF93DF93EC010E94060614
:100C80008C01CE010E942506800F911FDF91CF912C
:100C90001F910F9108958F929F92AF92BF92CF9222
:100CA000DF92EF92FF920F931F93CF93DF93CDB715
:100CB000DEB7A1970FB6F894DEBF0FBECDBF7C01A3
:100CC000C42EE52FCB01D22E19A221E02D1510F054
:100CD0002AE0D22E8E010F5D1F4F8D2C912CA12C5E
:100CE000B12C6C2D7E2FA50194010E948C0B8C2DB4
:100CF000D29E80191124015011098A3014F4805DAC
:100D000001C0895CF8018083211531054105510539
:100D100021F0C22EE32FCA01E4CFB801C7010E941F
:100D20000606A1960FB6F894DEBF0FBECDBFDF91C9
:100D3000CF911F910F91FF90EF90DF90CF90BF90D8
:100D4000AF909F908F9008952115310541F4DC01FB
:100D5000ED91FC910190F081E02D642F09940C94A9
:100D60004B069A01462F50E060E070E00C94A40618
:100D700040915302509154022091510230915202FD
:100D800042175307B4F49091E8009570E1F3909105
:100D9000E80092FD19C08093F10080915302909178
:100DA000540201968F739927892B19F48EEF809343
:100DB000E80080915302909154020196909354025E
:100DC0008093530281E0089580E00895FF920F938D
:100DD0001F93CF93DF938C0188E10E94B80683E0D4
:100DE0000E94B806C0E0D0E0F801EC0FFD1F84912E
:100DF0000E94B806F82E80E00E94B8068F2121F0EC
:100E00002196CB30D10581F7DF91CF911F910F91C2
:100E1000FF900895615030F02091F100FC01208393
:100E20000196F8CF289884E68093560208952FB74C
:100E3000FC012083F89467706093E9000895CF93D4
:100E4000DF931F92CDB7DEB7682FCE0101960E94C7
:100E500017078091F20099819FBF0F90DF91CF918A
:100E60000895FF920F931F93CF93DF9300D0CDB7D8
:100E7000DEB7F62E8A0190915502992311F057FFA3
:100E800003C08FEF9FEF2BC0682FCE0101967A83AE
:100E90000E9417078091F20090E0A8017A818017E4
:100EA00091070CF4AC01EF2DF72FF40E84E6FE163B
:100EB00039F02898809356029091F1009193F7CFE2
:100EC0004115510521F08091F200882321F089819C
:100ED0008FBFCA0104C08BE68093E800F8CF0F9063
:100EE0000F90DF91CF911F910F91FF900895CF93B5
:100EF000DF931F92CDB7DEB741E050E0BE016F5FD8
:100F00007F4F0E943107019719F4898190E002C058
:100F10008FEF9FEF0F90DF91CF910895CF93DF93E5
:100F20001F92CDB7DEB7682FCE0101960E9417073A
:100F30009091E800892F807295FF04C09091F20093
:100F400080E4891B99819FBF0F90DF91CF91089515
:100F50006F927F928F929F92AF92BF92CF92DF92C9
:100F6000EF92FF920F931F93CF93DF931F92CDB712
:100F7000DEB7782E7B01C42EB52E809155028823D2
:100F800069F0042F152F8AEFD82E872D8072982EA6
:100F90009AE3A92E872D8074882E11C08FEF9FEFC2
:100FA00057C0872D0E948E07682E81110CC0DA94DD
:100FB000A9F361E070E080E090E00E945D0401151B
:100FC000110579F73BC0282F30E0021713070CF406
:100FD000602E672DCE0101960E9417078091E800D0
:100FE00085FF29C0262D30E0021B130B992039F014
:100FF0006A948FEF6816B1F01092F100F9CFF70103
:10100000862D77FE07C0815058F094919093F1009F
:101010003196F9CF815020F091919093F100FACF61
:10102000E20EF31E8091E80085FF0FC00115110547
:1010300011F481100AC089818FBFC1CF5D9884E609
:10104000809357028C2D9B2D03C0A092E800F3CF14
:101050000F90DF91CF911F910F91FF90EF90DF9054
:10106000CF90BF90AF909F908F907F906F9008959A
:101070001092E9001092540210925302909352027F
:10108000809351020895CF92DF92FF920F931F93A6
:10109000CF93DF9300D0CDB7DEB7F82E8A016B0176
:1010A00001151105B1F0F601F7FE02C0849101C0EF
:1010B000808149835A830E94B80601501109FFEFCD
:1010C000CF1ADF0A49815A818111EACF8FEF9FEF52
:1010D00001C0CA010F900F90DF91CF911F910F9126
:1010E000FF90DF90CF9008951F93CF93DF931F92CF
:1010F000CDB7DEB7162F2091E80022FFFCCF612F7D
:1011000079830E940A078BEF8093E800812F798111
:10111000972F0F90DF91CF911F910895CF93DF9379
:101120001F92CDB7DEB71982CE0101960E94380515
:10113000CE0101960E94670A898190E00F90DF91AD
:10114000CF9108951F920F920FB60F921124EF9234
:10115000FF920F931F932F933F934F935F936F9340
:101160007F938F939F93AF93BF93EF93FF93CF930F
:10117000DF93CDB7DEB76297DEBFCDBF1092E90037
:101180008091E80083FFE9C068E0CE010A960E94E2
:101190000A0782EF8093E8009A8597FF05C0809147
:1011A000E80080FFFCCF03C08EEF8093E800892F1A
:1011B000807609F0B7C08B85811105C01092F100CF
:1011C0001092F100C3C0282F2D7F213009F4BEC03A
:1011D000853049F48091E80080FFFCCF8C858068E1
:1011E0008093E300B3C0863009F074C02D85E88891
:1011F000F988223071F580E090E02A8B0E9438084F
:101200000E948E0899E08E010F5F1F4FF801392F61
:1012100011923A95E9F799832A892A8391E09E836E
:1012200090E898879AEF9987209153023091540261
:10123000275F3F4F3C832B838D83C7010E94380873
:1012400049E050E0B80180E00E9443080E948E0807
:101250007DC0C7012A8B0E9438082A89223241F4B6
:1012600082E290E00E94720A892B09F06FC072C07E
:10127000213069F488899989089711F420935002E4
:1012800080915002811116C065E071E018C02330D2
:1012900009F060C08C85882381F0823019F483E2E4
:1012A00091E005C0813009F055C087E191E00E94CE
:1012B000E6064AC063EF70E002C06FE271E06115BC
:1012C000710509F447C0FB01449150E080E80E9499
:1012D00043083CC0873009F43DC0883021F481E0E8
:1012E0008093F10033C0893089F5937099F5EFEE62
:1012F000F0E081E021E096E38093E9002093EB00A9
:1013000034913093EC009093ED008F5F31968530EF
:1013100099F78EE78093EA001092EA008C8580931B
:10132000550214C0888999890E9438088E858111D8
:1013300005C0CE010A960E94430506C0823051F4D2
:10134000CE010A960E949A0A882321F08EEF80939C
:10135000E80003C081E28093EB0062960FB6F89438
:10136000DEBF0FBECDBFDF91CF91FF91EF91BF9157
:10137000AF919F918F917F916F915F914F913F912D
:101380002F911F910F91FF90EF900F900FBE0F9034
:101390001F9018958093E9008091F200882319F03E
:1013A0008AE38093E80008951F920F920FB60F9280
:1013B00011242F933F934F935F936F937F938F935A
:1013C0009F93AF93BF93EF93FF938091E1001092AF
:1013D000E10083FF0FC01092E90091E09093EB00D1
:1013E0001092EC0092E39093ED001092550298E079
:1013F0009093F00082FF1DC083E00E94CA09809193
:101400005702882339F08091570281508093570208
:10141000882369F080915602882359F08091560202
:10142000815080935602811104C0289A02C05D9AAF
:10143000F1CFFF91EF91BF91AF919F918F917F91EC
:101440006F915F914F913F912F910F900FBE0F9031
:101450001F9018951092550281E08093D70080EA82
:101460008093D80082E189BD09B400FEFDCF61E020
:1014700070E080E090E00E945D0480E98093D800F5
:101480008CE08093E2001092E000559A209A089533
:101490000895FF920F931F93CF93DF93EC01F62EE5
:1014A000E881F9810480F581E02D09958C01E881BE
:1014B000F9810680F781E02D6F2DCE010995C801D5
:1014C0009927DF91CF911F910F91FF900895FC0113
:1014D00020812F5F208349E150E063EB71E080E8D9
:1014E0000C94430845E650E06CEC71E080E80C9405
:1014F0004308EF92FF920F931F93CF93DF931F92B6
:10150000CDB7DEB789838B017A0141E050E0BE019F
:101510006F5F7F4F84E00E94A807A701B80184E4B1
:101520000E94A8070F90DF91CF911F910F91FF901C
:10153000EF900895FC0191818081813A31F481E03E
:10154000913091F0933089F411C0813271F49B3065
:1015500021F482818093090105C09A3031F482819F
:101560008093080181E00895089580E0089548E09F
:1015700050E082E00C94790ACF93DF93DC01683865
:1015800018F0E8E7E60F25C0E62FF0E067FF11C08E
:10159000E058F10981E090E001C0880FEA95EAF790
:1015A00014969C911497982B14969C931497E0E0B2
:1015B00010C0ED5CFE4FE491EE2309F440C0E7FF5C
:1015C00008C014968C911497826014968C9314978B
:1015D000EF7716968C9116978E1741F117968C918E
:1015E00017978E1719F118968C9118978E17F1F09E
:1015F00019968C9119978E17C9F01A968C911A9793
:101600008E17A1F01B968C911B978E1779F080E0B6
:1016100090E0ED01C80FD91F2E81211102C0EE8389
:1016200005C0019686309105A1F709C0BD016C5F28
:101630007F4FCD010E94B70A81E090E008C081E0B1
:1016400090E013969C938E93129780E090E0DF9148
:10165000CF910895683818F0E8E7E60F25C0E62F27
:10166000F0E067FF12C0E058F10921E030E001C06E
:10167000220FEA95EAF72095DC0114963C91149725
:10168000322314963C93E0E00FC0ED5CFE4FE491F2
:10169000EE2329F1E7FF08C0DC0114962C91149782
:1016A0002D7F14962C93EF7720E030E0EE2351F05D
:1016B000DC01A20FB31F16964C9116974E1302C071
:1016C00016961C922F5F3F4F2630310579F7BC01EB
:1016D0006C5F7F4F0E94B70A81E090E0089580E040
:1016E00090E00895FC0116821782108611861286FA
:1016F00013861482BC016C5F7F4F0C94B70A109262
:10170000640210925B0210925A028CE991E090936D
:101710005902809358020895A1E21A2EAA1BBB1BFE
:10172000FD010DC0AA1FBB1FEE1FFF1FA217B307AD
:10173000E407F50720F0A21BB30BE40BF50B661FC3
:10174000771F881F991F1A9469F760957095809587
:1017500090959B01AC01BD01CF010895EE0FFF1FD5
:0C1760000590F491E02D0994F894FFCF5F
:10176C0000E10000000000000101564D4450565F9E
:10177C00317C315F564D4450560D0A007C00564D5D
:10178C004450455F003A323A005F564D4450450094
:10179C00564D4450435F005F564D4450430D0A0074
:1017AC004572726F723A20417474656D7074207456
:1017BC006F20736574206120726561642D6F6E6C8F
:1017CC0079207661726961626C65206F7220646148
:1017DC0074612074797065206E6F742073757070ED
:1017EC006F727465640D0A0000000000DB042205B2
:1017FC0005051505F104020500000000490ADE0587
:06180C00BC0A2A0B720B5E
:00000001FF
