:100000000C94E2000C940A010C940A010C940A016D
:100010000C940A010C940A010C940A010C940A0134
:100020000C940A010C940A010C940A010C940A0124
:100030000C940A010C940A010C940A010C940A0114
:100040000C94D7050C940A010C940A010C940A0133
:100050000C940A010C940A010C940A010C940A01F4
:100060000C940A010C940A01005EBCE2613FDD833E
:10007000C29C7E20A3FD1F419DC3217FFCA2401E88
:100080005F01E3BD3E6082DC237D9FC1421CFEA078
:10009000E1BF5D0380DE3C62BEE0025CDF81633D68
:1000A0007C22C09E1D43A1FF4618FAA427799BC558
:1000B00084DA3866E5BB5907DB856739BAE4065848
:1000C0001947A5FB7826C49A653BD987045AB8E638
:1000D000A7F91B45C6987A24F8A6441A99C7257B28
:1000E0003A6486D85B05E7B98CD2306EEDB3510F18
:1000F0004E10F2AC2F7193CD114FADF3702ECC9208
:10010000D38D6F31B2EC0E50AFF1134DCE90722CF7
:100110006D33D18F0C52B0EE326C8ED0530DEFB1E7
:10012000F0AE4C1291CF2D73CA947628ABF51749D7
:100130000856B4EA6937D58B5709EBB536688AD4C7
:1001400095CB2977F4AA4816E9B7550B88D6346AB7
:100150002B7597C94A14F6A8742AC896154BA9F7A7
:10016000B6E80A54D7896B35000000080002010088
:100170000003040700000000000000000102040862
:100180001020408001020408102001020408102001
:10019000040404040404040402020202020203032D
:1001A00003030303000000002300260029000000D1
:1001B0000000250028002B0000000000240027007C
:1001C0002A000E0211241FBECFEFD8E0DEBFCDBF44
:1001D00011E0A0E0B1E0E4EFF6E102C005900D927D
:1001E000AA32B107D9F721E0AAE2B1E001C01D921D
:1001F000AA37B207E1F711E0C4ECD1E004C02297BE
:10020000FE010E94740BC23CD107C9F70E944A0745
:100210000C94780B0C94000020E042E060E189E54A
:1002200091E00C94EF02CF9341E064E371E08BE442
:1002300091E00E942E05811109C08BE491E00E949B
:10024000F9046AEF70E080E090E0E3C067E084E3E7
:1002500091E00E94CB0590913B018913DDC0809114
:100260003401823249F0883239F0803109F0D4C04B
:1002700081E08093480102C0109248018BE491E034
:100280000E94D60364E371E08BE491E00E94D10404
:1002900041E064E48BE491E00E94730468EE73E053
:1002A00080E090E00E9444068BE491E00E94D60337
:1002B0008093490164E371E08BE491E00E94D104F2
:1002C00040E06EEB8BE491E00E94730410924A01CF
:1002D000C0914A01C93078F48BE491E00E94B504E2
:1002E000EC2FF0E0E45CFE4F808380914A018F5F49
:1002F00080934A01EDCF60913D0170E0762F662733
:1003000080913C01682B80914801882399F083E01B
:10031000660F771F8A95E1F7809143018031B9F428
:10032000209142018CE090E0821B9109607F680F70
:10033000791F0DC080914001807611F4687F07C05D
:10034000803211F46C7F03C0803409F46E7F8827FB
:1003500077FD8095982F0E94350A20E030E040E834
:100360005DE30E94E90A609330017093310180934C
:1003700032019093330126E636E646EE5FE30E94B3
:10038000E90A20E030E040E052E40E943209609344
:100390002C0170932D0180932E0190932F0189E5FC
:1003A00091E00E94CE0240E060E089E591E00E9489
:1003B000D50260E071E089E591E00E94970741E095
:1003C00062E089E591E00E94D50280912A01909136
:1003D0002B01892B31F06EE071E089E591E00E94FC
:1003E0009707409130015091310160913201709135
:1003F000330122E030E089E591E00E942E0960E1BE
:1004000071E089E591E00E94970768E873E180E078
:1004100090E0CF910C944406CF910895CF92EF9243
:100420000F9327E0C22E36E0E32E05E024E049E0FA
:1004300068E089E591E00E94AA0362E08BE491E024
:100440000F91EF90CF900C940B05CF93DF93EC01BD
:1004500060E08E810E94130781E090E00E946C06AC
:1004600061E08E810E94130781E090E00E946C069B
:1004700060E08E810E94130784E690E0DF91CF91C7
:100480000C946C06CF92DF92EF92FF920F931F9322
:10049000CF93DF937C01C0E0D0E0C62ED12C870142
:1004A0000C0F1D1F61E0F80187810E94DA06B6017A
:1004B0000C2E02C0759567950A94E2F76170F801F9
:1004C00087810E9413072196C430D10541F7C701E7
:1004D000DF91CF911F910F91FF90EF90DF90CF9020
:1004E0000C942502CF92DF92EF92FF920F931F930D
:1004F000CF93DF937C01C0E0D0E0C62ED12C8701E2
:100500000C0F1D1F61E0F80187810E94DA06B60119
:100510000C2E02C0759567950A94E2F76170F80198
:1005200087810E9413072196C830D10541F7C70182
:10053000DF91CF911F910F91FF90EF90DF90CF90BF
:100540000C9425021F93CF93DF93EC01162F642F99
:100550008C810E9413078D818F3F19F060E00E940B
:1005600013078F85612F84FF06C0CE01DF91CF91E5
:100570001F910C94720270E084E0759567958A95DE
:10058000E1F7CE010E944202612FCE01DF91CF91AF
:100590001F910C94420240E00C94A20261E00E9480
:1005A000CB0280ED97E00C946C06443008F043E0F9
:1005B000FC012389421710F04FEF420FFC01E40FBA
:1005C000F11D2489260F2068622F0C94CB02FC01B8
:1005D0006089262F2460208B6C600C94CB02CF9313
:1005E000DF93EC01423018F08F8588608F874B8B4A
:1005F0001C8A80E48D8B6E8B70E0605C7F4F6F8B0C
:10060000222329F0413019F48F8584608F8780E59B
:1006100093EC0E946C0660E08C810E94130760E0FE
:100620008E810E9413078D818F3F19F060E00E9438
:1006300013076F8564FD1DC063E0CE010E94420276
:1006400084E991E10E946C0663E0CE010E944202BF
:1006500084E991E10E946C0663E0CE010E944202AF
:1006600086E990E00E946C0662E0CE010E944202A0
:1006700016C06062CE010E94CB0284E991E10E9423
:100680006C066F856062CE010E94CB0286E990E025
:100690000E946C066F856062CE010E94CB026F855E
:1006A0006062CE010E94CB0284E0888BCE010E9462
:1006B000E702CE010E94CE0282E0898B66E0CE0185
:1006C000DF91CF910C94CB026F927F928F92AF9279
:1006D000CF92EF920F931F93CF93DF93CDB7DEB7F7
:1006E0003C01162F842F5D854E853F859889F30147
:1006F000848325830683E782C086A186828653870A
:1007000044873587968761E00E94DA06F301858188
:100710008F3F19F061E00E94DA0661E0F301868103
:100720000E94DA06112319F0F301178603C080E155
:10073000F301878720E041E060E1C301DF91CF91C1
:100740001F910F91EF90CF90AF908F907F906F900F
:100750000C94EF028F92AF92CF92EF920F93DC0145
:1007600013961C921E921297E8E1F1E0ED93FC9330
:100770001F921F921F921F928C2CAE2CC02EE22E25
:10078000042F2FEF462F61E00E9464030F900F901B
:100790000F900F900F91EF90CF90AF908F900895A2
:1007A00041E00E94A20281E090E00895FF920F9341
:1007B0001F93CF93DF93FC010081C181D281F89414
:1007C0008981F02EF0948F21898378941DE7115050
:1007D00029F182E090E00E946C0688818023B9F3C1
:1007E000F8948A818F218A838981802B89837894E8
:1007F00080EE91E00E946C06F89489818F218983B4
:1008000086E490E00E946C068881802311E009F064
:1008100010E078948AE991E00E946C06812FDF91C4
:10082000CF911F910F91FF9008951F93CF93DF9366
:10083000FC011081C181D281912F909560FF12C07F
:10084000F8948A8189238A838981812B89838AE02C
:1008500090E00E946C068A81812B8A83789487E3DA
:1008600090E011C0F8948A8189238A838981812B41
:10087000898381E490E00E946C068A81812B8A83BF
:10088000789485E090E0DF91CF911F910C946C06F5
:100890000F931F93CF93DF93FC011081C181D2810D
:1008A000F8948981812B89838A81012F0095802387
:1008B0008A8383E090E00E946C068981802389838B
:1008C0008AE090E00E946C06C881789485E390E00D
:1008D0000E946C061C2381E009F480E0DF91CF9137
:1008E0001F910F910895CF92DF92EF92FF920F9395
:1008F0001F93CF93DF931F92CDB7DEB76C01E62E27
:1009000008E010E0FF24F39461E09F2D9E2109F49C
:1009100060E0C60149830E941504FF0C01501109D3
:1009200049810115110581F7411115C0F894D601CF
:100930001196ED91FC91129791818C91809589236C
:1009400081831196ED91FC91129792818C91809503
:100950008923828378940F90DF91CF911F910F911B
:10096000FF90EF90DF90CF900895EF92FF920F935A
:100970001F93CF93DF938C01C8E0D0E0F12CEE24DD
:10098000E394C8010E9448048111FE28EE0C2197CF
:10099000C1F78F2DDF91CF911F910F91FF90EF90B5
:1009A0000895CF92DF92FF920F931F93CF93DF931F
:1009B0001F92CDB7DEB78C01F62E40E065E5798356
:1009C0000E947304CF2C7981D72E88E0F82EF6018F
:1009D00061916F0140E0C8010E947304FA94B9F775
:1009E0000F90DF91CF911F910F91FF90DF90CF90EB
:1009F0000895FC0113861586148627E030E0DF0198
:100A0000A20FB31F13961C922115310519F0215026
:100A10003109F5CF08951F93CF93DF93EC01162F83
:100A200060E0812F0E94DA06612F70E0FB01E4583C
:100A3000FE4FE491E883FB01E057FE4FE491F0E0C4
:100A4000EE0FFF1FEC55FE4F859194919A83898399
:100A5000CE01DF91CF911F910C94F904AF92BF9218
:100A6000CF92DF92EF92FF920F931F93CF93DF937A
:100A70001F92CDB7DEB75C01D62EE72EFC0185852F
:100A8000811164C0C50149830E94D6034981811147
:100A900005C0F50113861586148671C0442319F02C
:100AA00040E060EF02C040E06CEEC5010E947304BC
:100AB00001E0F12CC12C11E0C5010E944804682F0F
:100AC000C50169830E9448046981613019F481304D
:100AD000B9F433C02F2D30E068131BC0F5018385B6
:100AE000181730F4E20FF31F8381802349F402C00A
:100AF000181731F060E0193058F4F501148708C078
:100B0000F501EF0DF11D8381802B838361E009C026
:100B1000C12EF501E20FF31F8381902F9095892359
:100B20008383C5010E9415041F5F000F11F4F39425
:100B300001E0F7E0FF1508F0BFCF113438F0F50100
:100B4000C386C11009C081E0858706C0F501138600
:100B50001586148680E013C0F50183818823B1F3E4
:100B6000ED2DFE2D80E090E0D501A80FB91F139662
:100B70002C912193019688309105B1F781E00F9077
:100B8000DF91CF911F910F91FF90EF90DF90CF9069
:100B9000BF90AF900895DC0180E0615038F0ED9196
:100BA000E827F0E0E859FF4F8491F7CF08951F92AE
:100BB0000F920FB60F9211242F933F938F939F9311
:100BC000AF93BF938091720190917301A0917401D2
:100BD000B09175013091710123E0230F2D3720F47E
:100BE0000196A11DB11D05C026E8230F0296A11D87
:100BF000B11D209371018093720190937301A093B2
:100C00007401B09375018091760190917701A09164
:100C10007801B09179010196A11DB11D80937601F3
:100C200090937701A0937801B0937901BF91AF9130
:100C30009F918F913F912F910F900FBE0F901F901A
:100C400018953FB7F8948091760190917701A09123
:100C50007801B091790126B5A89B05C02F3F19F006
:100C60000196A11DB11D3FBF6627782F892F9A2FAE
:100C7000620F711D811D911D42E0660F771F881F55
:100C8000991F4A95D1F70895CF92DF92EF92FF9284
:100C9000CF93DF936B017C010E942106EB01C1140D
:100CA000D104E104F10489F00E9430090E94210678
:100CB0006C1B7D0B683E734090F381E0C81AD1082D
:100CC000E108F108C851DC4FEACFDF91CF91FF90E6
:100CD000EF90DF90CF900895019739F0880F991F1A
:100CE000880F991F02970197F1F70895789484B5BA
:100CF000826084BD84B5816084BD85B5826085BD18
:100D000085B5816085BDEEE6F0E0808181608083FD
:100D1000E1E8F0E0108280818260808380818160E0
:100D20008083E0E8F0E0808181608083E1EBF0E0A7
:100D3000808184608083E0EBF0E08081816080834B
:100D4000EAE7F0E080818460808380818260808334
:100D50008081816080838081806880831092C1005F
:100D60000895833081F028F4813099F08230A1F029
:100D700008958730A9F08830B9F08430D1F480919B
:100D800080008F7D03C0809180008F7780938000EA
:100D9000089584B58F7702C084B58F7D84BD089592
:100DA0008091B0008F7703C08091B0008F7D8093D9
:100DB000B0000895CF93DF9390E0FC01E458FE4F1C
:100DC0002491FC01E057FE4F8491882349F190E083
:100DD000880F991FFC01E854FE4FA591B4918255EC
:100DE0009E4FFC01C591D4919FB7611108C0F89442
:100DF0008C91209582238C93888182230AC0623053
:100E000051F4F8948C91322F309583238C93888100
:100E1000822B888304C0F8948C91822B8C939FBF83
:100E2000DF91CF9108950F931F93CF93DF931F927C
:100E3000CDB7DEB7282F30E0F901E859FE4F849195
:100E4000F901E458FE4F1491F901E057FE4F049167
:100E50000023C9F0882321F069830E94B1066981CB
:100E6000E02FF0E0EE0FFF1FE255FE4FA591B49189
:100E70009FB7F8948C91611103C01095812301C034
:100E8000812B8C939FBF0F90DF91CF911F910F917A
:100E9000089508950E9476060E9449070E940C0159
:100EA000C0E0D0E00E9413012097E1F30E9400000F
:100EB000F9CFCF92DF92EF92FF920F931F93CF93D0
:100EC000DF936C017A01EB01E60EF71E00E010E003
:100ED000CE15DF0561F06991D601ED91FC9101908D
:100EE000F081E02DC6010995080F191FF1CFC80147
:100EF000DF91CF911F910F91FF90EF90DF90CF90F6
:100F000008956115710581F0DB010D900020E9F76E
:100F1000AD0141505109461B570BDC01ED91FC918D
:100F20000280F381E02D099480E090E008950C9414
:100F30008107DC01ED91FC910190F081E02D099495
:100F40008F929F92AF92BF92CF92DF92EF92FF92D9
:100F50000F931F93CF93DF93CDB7DEB7A1970FB653
:100F6000F894DEBF0FBECDBF7C01C42EE52FCB01B0
:100F7000D22E19A221E02D1510F02AE0D22E8E01DA
:100F80000F5D1F4F8D2C912CA12CB12C6C2D7E2F21
:100F9000A50194010E94500B8C2DD29E8019112422
:100FA000015011098A3014F4805D01C0895CF80198
:100FB0008083211531054105510521F0C22EE32F13
:100FC000CA01E4CFB801C7010E948107A1960FB6FC
:100FD000F894DEBF0FBECDBFDF91CF911F910F916F
:100FE000FF90EF90DF90CF90BF90AF909F908F9049
:100FF0000895CF92DF92EF92FF920F931F93CF93BA
:10100000DF93EC016A017B012115310579F4E88158
:10101000F9810190F081E02D642FDF91CF911F9134
:101020000F91FF90EF90DF90CF9009942A30310517
:10103000E9F477FF1AC06DE20E9499078C014427FA
:101040005527BA014C195D096E097F092AE0CE01C6
:101050000E94A007800F911FDF91CF911F910F91E8
:10106000FF90EF90DF90CF9008952AE0B701A6019E
:10107000CE01DF91CF911F910F91FF90EF90DF9004
:10108000CF900C94A0074F925F926F927F928F92B5
:101090009F92AF92BF92CF92DF92EF92FF920F9307
:1010A0001F93CF93DF93EC016A017B01B22E9A016B
:1010B000AB01C701B6010E944C0B882319F06CE10B
:1010C00071E027C026013701E89477F82FEF3FEF52
:1010D0004FE75FE7C301B2010E944C0B81110DC0C5
:1010E0002FEF3FEF4FE75FE7C301B2010E94960980
:1010F00018161CF460E271E00CC02FEF3FEF4FE7D1
:101100005FE4C701B6010E94E50A1816ACF464E278
:1011100071E0CE01DF91CF911F910F91FF90EF9081
:10112000DF90CF90BF90AF909F908F907F906F9007
:101130005F904F900C9481072FEF3FEF4FE75FECEC
:10114000C701B6010E94960987FDE1CF20E030E09B
:10115000A901C701B6010E94960987FF0AC06DE286
:10116000CE010E9499078C01F7FAF094F7F8F094F9
:1011700002C000E010E0A12C60E070E080E09FE39E
:10118000AB1441F020E030E040E251E40E949A09C3
:10119000A394F6CF9B01AC01C701B6010E943209AE
:1011A0006B017C010E94070A2B013C010E94330A5B
:1011B0009B01AC01C701B6010E9431096B017C01A2
:1011C0002AE0B301A201CE010E94A007080F191F57
:1011D000BB2039F068E271E0CE010E948107080F60
:1011E000191F7B2C772041F120E030E040E251E4F0
:1011F000C701B6010E94E90A6B017C010E94020A44
:101200004B01AA2497FCA094BA2C2AE030E0B50147
:10121000A401CE010E94F907080F191FC501B401EE
:101220000E94350A9B01AC01C701B6010E94310939
:101230006B017C017A94D6CFC801DF91CF911F91C9
:101240000F91FF90EF90DF90CF90BF90AF909F9065
:101250008F907F906F905F904F9008950C9443080B
:1012600008955058BB27AA270ED075C166D130F01B
:101270006BD120F031F49F3F11F41EF45BC10EF4EA
:10128000E095E7FB51C1E92F77D180F3BA176207E8
:1012900073078407950718F071F49EF58FC10EF45B
:1012A000E0950B2EBA2FA02D0B01B90190010C0176
:1012B000CA01A0011124FF27591B99F0593F50F48E
:1012C000503E68F11A16F040A22F232F342F4427E6
:1012D000585FF3CF469537952795A795F0405395DE
:1012E000C9F77EF41F16BA0B620B730B840BBAF0AE
:1012F0009150A1F0FF0FBB1F661F771F881FC2F719
:101300000EC0BA0F621F731F841F48F4879577952C
:101310006795B795F7959E3F08F0B3CF9395880FE3
:1013200008F09927EE0F979587950895D9D008F47E
:1013300081E008950CD00FC107D140F0FED030F00D
:1013400021F45F3F19F0F0C0511139C1F3C014D13D
:1013500098F39923C9F35523B1F3951B550BBB277C
:10136000AA2762177307840738F09F5F5F4F220F29
:10137000331F441FAA1FA9F333D00E2E3AF0E0E822
:1013800030D091505040E695001CCAF729D0FE2F6E
:1013900027D0660F771F881FBB1F26173707480700
:1013A000AB07B0E809F0BB0B802DBF01FF279358B6
:1013B0005F4F2AF09E3F510568F0B6C000C15F3F05
:1013C000ECF3983EDCF3869577956795B795F7959E
:1013D0009F5FC9F7880F911D9695879597F9089596
:1013E000E1E0660F771F881FBB1F62177307840732
:1013F000BA0720F0621B730B840BBA0BEE1F88F741
:10140000E095089504D06894B111D9C00895BCD076
:1014100088F09F5790F0B92F9927B751A0F0D1F0DD
:10142000660F771F881F991F1AF0BA95C9F712C067
:10143000B13081F0C3D0B1E00895C0C0672F782FDC
:101440008827B85F39F0B93FCCF3869577956795D3
:10145000B395D9F73EF490958095709561957F4F3F
:101460008F4F9F4F0895E89409C097FB3EF49095E5
:101470008095709561957F4F8F4F9F4F9923A9F06D
:10148000F92F96E9BB279395F695879577956795FC
:10149000B795F111F8CFFAF4BB0F11F460FF1BC040
:1014A0006F5F7F4F8F4F9F4F16C0882311F096E9D3
:1014B00011C0772321F09EE8872F762F05C0662381
:1014C00071F096E8862F70E060E02AF09A95660F3A
:1014D000771F881FDAF7880F9695879597F90895F3
:1014E000990F0008550FAA0BE0E8FEEF1616170635
:1014F000E807F907C0F012161306E407F50798F09D
:10150000621B730B840B950B39F40A2661F0232BB5
:10151000242B252B21F408950A2609F4A140A69531
:101520008FEF811D811D089597F99F6780E870E016
:1015300060E008959FEF80EC089500240A94161649
:10154000170618060906089500240A9412161306B1
:10155000140605060895092E0394000C11F488233F
:1015600052F0BB0F40F4BF2B11F460FF04C06F5F5B
:101570007F4F8F4F9F4F089557FD9058440F551F31
:1015800059F05F3F71F04795880F97FB991F61F005
:101590009F3F79F087950895121613061406551F7C
:1015A000F2CF4695F1DF08C0161617061806991FE8
:1015B000F1CF86957105610508940895E894BB27DD
:1015C00066277727CB0197F908958ADF08F48FEF14
:1015D00008950BD0C0CFB1DF28F0B6DF18F0952307
:1015E00009F0A2CFA7CF1124EACFC6DFA0F3959FC1
:1015F000D1F3950F50E0551F629FF001729FBB27FA
:10160000F00DB11D639FAA27F00DB11DAA1F649FA5
:101610006627B00DA11D661F829F2227B00DA11D58
:10162000621F739FB00DA11D621F839FA00D611DDE
:10163000221F749F3327A00D611D231F849F600DFF
:10164000211D822F762F6A2F11249F5750408AF038
:10165000E1F088234AF0EE0FFF1FBB1F661F771FC4
:10166000881F91505040A9F79E3F510570F05CCF04
:10167000A6CF5F3FECF3983EDCF3869577956795B0
:10168000B795F795E7959F5FC1F7FE2B880F911DE2
:101690009695879597F9089523DF880B990B089500
:1016A000A1E21A2EAA1BBB1BFD010DC0AA1FBB1F66
:1016B000EE1FFF1FA217B307E407F50720F0A21BD8
:1016C000B30BE40BF50B661F771F881F991F1A9445
:1016D00069F760957095809590959B01AC01BD016F
:1016E000CF010895EE0FFF1F0590F491E02D0994AE
:0416F000F894FFCF9C
:1016F40054656D70657261747572613A20002D00D5
:101704002043200000000000D00359076E616E00E2
:0A171400696E66006F7666002E0015
:107E0000112484B714BE81FFF0D085E080938100F7
:107E100082E08093C00088E18093C10086E0809377
:107E2000C20080E18093C4008EE0C9D0259A86E02C
:107E300020E33CEF91E0309385002093840096BBD3
:107E4000B09BFECF1D9AA8958150A9F7CC24DD24C4
:107E500088248394B5E0AB2EA1E19A2EF3E0BF2EE7
:107E6000A2D0813461F49FD0082FAFD0023811F036
:107E7000013811F484E001C083E08DD089C08234E0
:107E800011F484E103C0853419F485E0A6D080C0E4
:107E9000853579F488D0E82EFF2485D0082F10E0AE
:107EA000102F00270E291F29000F111F8ED06801E7
:107EB0006FC0863521F484E090D080E0DECF843638
:107EC00009F040C070D06FD0082F6DD080E0C81688
:107ED00080E7D80618F4F601B7BEE895C0E0D1E017
:107EE00062D089930C17E1F7F0E0CF16F0E7DF06D8
:107EF00018F0F601B7BEE89568D007B600FCFDCFD4
:107F0000A601A0E0B1E02C9130E011968C91119780
:107F100090E0982F8827822B932B1296FA010C0160
:107F200087BEE89511244E5F5F4FF1E0A038BF0790
:107F300051F7F601A7BEE89507B600FCFDCF97BE46
:107F4000E89526C08437B1F42ED02DD0F82E2BD052
:107F50003CD0F601EF2C8F010F5F1F4F84911BD097
:107F6000EA94F801C1F70894C11CD11CFA94CF0C13
:107F7000D11C0EC0853739F428D08EE10CD085E9AC
:107F80000AD08FE07ACF813511F488E018D01DD067
:107F900080E101D065CF982F8091C00085FFFCCF94
:107FA0009093C60008958091C00087FFFCCF809118
:107FB000C00084FD01C0A8958091C6000895E0E648
:107FC000F0E098E1908380830895EDDF803219F02E
:107FD00088E0F5DFFFCF84E1DECF1F93182FE3DFCA
:107FE0001150E9F7F2DF1F91089580E0E8DFEE27F6
:047FF000FF270994CA
:027FFE00040479
:0400000300007E007B
:00000001FF